E103223162000187ISENTO                      CB DA SILVA FILHO CONSUILTORIA E INFORMATICA      
E20322316200018700000000000001MOUSE OPTICO                                      UN    00000680020100321
E20322316200018700000000000002TECLADO MULTIMIDA                                 UN    00000820020100321
E20322316200018700000000000003FAZ MODEM PARA TEF                                UN    00000630020100316
E20322316200018700000000000004MODEM ADSL                                        UN    00000770020100321
E20322316200018700000000000005JOGO DE KIT MULTIMIDIA                            UN    00000830020100321
E20322316200018700000000000006ESTABALIZADOR                                     UN    00000710020100321
E20322316200018700000000000007NO-BREAK DE 600WA                                 UN    00000820020100503
E20322316200018700000000000008IMPRESSORA HP LASERJET P1006                      UN    00000820020100603
E20322316200018700000000000009MONITOR LCD 15 POLEGADAS                          UN    00000730020100503
E903223162000187ISENTO        000009

EADBE57F32ACC8F5FE96155F65256E59B4FA4C2EC9F6B9873B5C1E88860F9FCDDAC575F89598479FEDF26C08A85DB896F5C24ED34EEEE6FC60EB58375511767AA22E561F7A4BB299117E767EF3A49E437AF1EF0A5179BEA48AFAD13CA5DE3226A91AB8D8827667DDB2896FE8D16C81CBBC2B673A656538C6DDB054B39C45C387A86