P103223162000187ISENTO                      CB DA SILVA FILHO CONSULTORIA E INFORMATICA       
P20322316200018700000000000001MOUSE OPTICO                                      UN    ATT1700000000002500
P20322316200018700000000000002TECLADO MULTIMIDA                                 UN    ATT1800000000003500
P20322316200018700000000000003FAZ MODEM PARA TEF                                UN    ATT2500000000013000
P20322316200018700000000000004MODEM ADSL                                        UN    ATT1200000000009500
P20322316200018700000000000005JOGO DE KIT MULTIMIDIA                            UN    ATT0500000000005500
P20322316200018700000000000006ESTABALIZADOR                                     UN    ATT0700000000004500
P20322316200018700000000000007NO-BREAK DE 600WA                                 UN    ATF0000000000021000
P20322316200018700000000000008IMPRESSORA HP LASERJET P1006                      UN    ATN0000000000020500
P20322316200018700000000000009MONITOR LCD 15 POLEGADAS                          UN    ATI0000000000028600
P903223162000187ISENTO        000009
EAD5722FFE46D73F2F45CDB4DFF62F2AB48EA876D5D17EE7CBFCEDFA429B7B4CC3BD5E9E2F103AE39FDF2288D6F7F65CBF2A63CE2B17DB70D23F010444C06DFFD8240EF4F5F8653FF920D7E535E0F726CA948697EFC41ED14B27AB914815CDC313428A7351F7EB1E0AAC7C9ABB432E8228FF53CCF4150EB8E76051FD7BEBCA34945